{
  "contractName": "Algorithm",
  "abi": [
    {
      "constant": true,
      "inputs": [],
      "name": "performanceValue",
      "outputs": [
        {
          "name": "",
          "type": "string"
        }
      ],
      "payable": false,
      "stateMutability": "view",
      "type": "function"
    },
    {
      "constant": true,
      "inputs": [],
      "name": "performanceName",
      "outputs": [
        {
          "name": "",
          "type": "string"
        }
      ],
      "payable": false,
      "stateMutability": "view",
      "type": "function"
    },
    {
      "constant": true,
      "inputs": [],
      "name": "target",
      "outputs": [
        {
          "name": "",
          "type": "string"
        }
      ],
      "payable": false,
      "stateMutability": "view",
      "type": "function"
    },
    {
      "inputs": [
        {
          "name": "mtarget",
          "type": "string"
        },
        {
          "name": "mperformanceName",
          "type": "string"
        },
        {
          "name": "mperformanceValue",
          "type": "string"
        },
        {
          "name": "managerAddr",
          "type": "address"
        }
      ],
      "payable": false,
      "stateMutability": "nonpayable",
      "type": "constructor"
    }
  ],
  "bytecode": "0x608060405234801561001057600080fd5b506040516105e43803806105e483398101806040528101908080518201929190602001805182019291906020018051820192919060200180519060200190929190505050836000908051906020019061006a92919061011e565b50826001908051906020019061008192919061011e565b50816002908051906020019061009892919061011e565b508073ffffffffffffffffffffffffffffffffffffffff1663a9d002736040518163ffffffff167c0100000000000000000000000000000000000000000000000000000000028152600401600060405180830381600087803b1580156100fd57600080fd5b505af1158015610111573d6000803e3d6000fd5b50505050505050506101c3565b828054600181600116156101000203166002900490600052602060002090601f016020900481019282601f1061015f57805160ff191683800117855561018d565b8280016001018555821561018d579182015b8281111561018c578251825591602001919060010190610171565b5b50905061019a919061019e565b5090565b6101c091905b808211156101bc5760008160009055506001016101a4565b5090565b90565b610412806101d26000396000f300608060405260043610610057576000357c0100000000000000000000000000000000000000000000000000000000900463ffffffff1680630daacf2a1461005c578063cddb8cfa146100ec578063d4b839921461017c575b600080fd5b34801561006857600080fd5b5061007161020c565b6040518080602001828103825283818151815260200191508051906020019080838360005b838110156100b1578082015181840152602081019050610096565b50505050905090810190601f1680156100de5780820380516001836020036101000a031916815260200191505b509250505060405180910390f35b3480156100f857600080fd5b506101016102aa565b6040518080602001828103825283818151815260200191508051906020019080838360005b83811015610141578082015181840152602081019050610126565b50505050905090810190601f16801561016e5780820380516001836020036101000a031916815260200191505b509250505060405180910390f35b34801561018857600080fd5b50610191610348565b6040518080602001828103825283818151815260200191508051906020019080838360005b838110156101d15780820151818401526020810190506101b6565b50505050905090810190601f1680156101fe5780820380516001836020036101000a031916815260200191505b509250505060405180910390f35b60028054600181600116156101000203166002900480601f0160208091040260200160405190810160405280929190818152602001828054600181600116156101000203166002900480156102a25780601f10610277576101008083540402835291602001916102a2565b820191906000526020600020905b81548152906001019060200180831161028557829003601f168201915b505050505081565b60018054600181600116156101000203166002900480601f0160208091040260200160405190810160405280929190818152602001828054600181600116156101000203166002900480156103405780601f1061031557610100808354040283529160200191610340565b820191906000526020600020905b81548152906001019060200180831161032357829003601f168201915b505050505081565b60008054600181600116156101000203166002900480601f0160208091040260200160405190810160405280929190818152602001828054600181600116156101000203166002900480156103de5780601f106103b3576101008083540402835291602001916103de565b820191906000526020600020905b8154815290600101906020018083116103c157829003601f168201915b5050505050815600a165627a7a723058209ad378e5cd65d307224ae46692ab2d64d2cee7f5bae10ca37af97c93cfe0f75d0029",
  "source": "pragma solidity ^0.4.24;\n\nimport './AlgorithmManager.sol';\n\ncontract Algorithm {\n    string public target;\n    string public performanceName;\n    string public performanceValue;\n\n    constructor(string mtarget, string mperformanceName, string mperformanceValue, address managerAddr) public {\n        target = mtarget;\n        performanceName = mperformanceName;\n        performanceValue = mperformanceValue;\n        AlgorithmManager(managerAddr).addAlgorithm();\n    }\n    \n}",
  "sourcePath": "D:\\Project\\Blockchain\\rejuvenation\\contracts\\Algorithm.sol",
  "compiler": {
    "name": "solc",
    "version": "0.4.24+commit.e67f0147.Emscripten.clang"
  },
  "schemaVersion": "2.0.1",
  "updatedAt": "2018-09-26T03:30:51.171Z"
}