{
  "contractName": "Register",
  "abi": [
    {
      "constant": true,
      "inputs": [],
      "name": "entity",
      "outputs": [
        {
          "name": "",
          "type": "address"
        }
      ],
      "payable": false,
      "stateMutability": "view",
      "type": "function"
    },
    {
      "inputs": [
        {
          "name": "entityname",
          "type": "string"
        },
        {
          "name": "mcategory",
          "type": "uint8"
        }
      ],
      "payable": false,
      "stateMutability": "nonpayable",
      "type": "constructor"
    },
    {
      "constant": false,
      "inputs": [],
      "name": "addMySeries",
      "outputs": [],
      "payable": true,
      "stateMutability": "payable",
      "type": "function"
    },
    {
      "constant": false,
      "inputs": [],
      "name": "addAuthorizedSeries",
      "outputs": [],
      "payable": true,
      "stateMutability": "payable",
      "type": "function"
    },
    {
      "constant": true,
      "inputs": [],
      "name": "getName",
      "outputs": [
        {
          "name": "",
          "type": "string"
        }
      ],
      "payable": false,
      "stateMutability": "view",
      "type": "function"
    },
    {
      "constant": false,
      "inputs": [
        {
          "name": "seriesAddr",
          "type": "address"
        }
      ],
      "name": "authorize",
      "outputs": [
        {
          "name": "",
          "type": "bool"
        }
      ],
      "payable": false,
      "stateMutability": "nonpayable",
      "type": "function"
    },
    {
      "constant": false,
      "inputs": [
        {
          "name": "seriesAddr",
          "type": "address"
        }
      ],
      "name": "unauthorize",
      "outputs": [
        {
          "name": "",
          "type": "bool"
        }
      ],
      "payable": false,
      "stateMutability": "nonpayable",
      "type": "function"
    },
    {
      "constant": true,
      "inputs": [
        {
          "name": "series",
          "type": "address"
        }
      ],
      "name": "queryAuthority",
      "outputs": [
        {
          "name": "",
          "type": "bool"
        }
      ],
      "payable": false,
      "stateMutability": "view",
      "type": "function"
    }
  ],
  "bytecode": "0x608060405234801561001057600080fd5b506040516108853803806108858339810180604052810190808051820192919060200180519060200190929190505050336000806101000a81548173ffffffffffffffffffffffffffffffffffffffff021916908373ffffffffffffffffffffffffffffffffffffffff16021790555081600190805190602001906100969291906100c1565b5080600260006101000a81548160ff021916908360068111156100b557fe5b02179055505050610166565b828054600181600116156101000203166002900490600052602060002090601f016020900481019282601f1061010257805160ff1916838001178555610130565b82800160010185558215610130579182015b8281111561012f578251825591602001919060010190610114565b5b50905061013d9190610141565b5090565b61016391905b8082111561015f576000816000905550600101610147565b5090565b90565b610710806101756000396000f300608060405260043610610083576000357c0100000000000000000000000000000000000000000000000000000000900463ffffffff1680630846fee61461008857806317d7de7c146100925780636cdbbc661461012257806370d26fc714610179578063b6a5d7de14610183578063b9d4f0cd146101de578063f0b37c0414610239575b600080fd5b610090610294565b005b34801561009e57600080fd5b506100a76102ee565b6040518080602001828103825283818151815260200191508051906020019080838360005b838110156100e75780820151818401526020810190506100cc565b50505050905090810190601f1680156101145780820380516001836020036101000a031916815260200191505b509250505060405180910390f35b34801561012e57600080fd5b50610137610390565b604051808273ffffffffffffffffffffffffffffffffffffffff1673ffffffffffffffffffffffffffffffffffffffff16815260200191505060405180910390f35b6101816103b5565b005b34801561018f57600080fd5b506101c4600480360381019080803573ffffffffffffffffffffffffffffffffffffffff16906020019092919050505061040f565b604051808215151515815260200191505060405180910390f35b3480156101ea57600080fd5b5061021f600480360381019080803573ffffffffffffffffffffffffffffffffffffffff169060200190929190505050610553565b604051808215151515815260200191505060405180910390f35b34801561024557600080fd5b5061027a600480360381019080803573ffffffffffffffffffffffffffffffffffffffff1690602001909291905050506105a9565b604051808215151515815260200191505060405180910390f35b6001600460003373ffffffffffffffffffffffffffffffffffffffff1673ffffffffffffffffffffffffffffffffffffffff16815260200190815260200160002060006101000a81548160ff021916908315150217905550565b606060018054600181600116156101000203166002900480601f0160208091040260200160405190810160405280929190818152602001828054600181600116156101000203166002900480156103865780601f1061035b57610100808354040283529160200191610386565b820191906000526020600020905b81548152906001019060200180831161036957829003601f168201915b5050505050905090565b6000809054906101000a900473ffffffffffffffffffffffffffffffffffffffff1681565b6001600460003373ffffffffffffffffffffffffffffffffffffffff1673ffffffffffffffffffffffffffffffffffffffff16815260200190815260200160002060006101000a81548160ff021916908315150217905550565b6000808290503373ffffffffffffffffffffffffffffffffffffffff168173ffffffffffffffffffffffffffffffffffffffff16638da5cb5b6040518163ffffffff167c0100000000000000000000000000000000000000000000000000000000028152600401602060405180830381600087803b15801561049057600080fd5b505af11580156104a4573d6000803e3d6000fd5b505050506040513d60208110156104ba57600080fd5b810190808051906020019092919050505073ffffffffffffffffffffffffffffffffffffffff161415610548576001600360003373ffffffffffffffffffffffffffffffffffffffff1673ffffffffffffffffffffffffffffffffffffffff16815260200190815260200160002060006101000a81548160ff0219169083151502179055506001915061054d565b600091505b50919050565b6000600360008373ffffffffffffffffffffffffffffffffffffffff1673ffffffffffffffffffffffffffffffffffffffff16815260200190815260200160002060009054906101000a900460ff169050919050565b6000808290503373ffffffffffffffffffffffffffffffffffffffff168173ffffffffffffffffffffffffffffffffffffffff16638da5cb5b6040518163ffffffff167c0100000000000000000000000000000000000000000000000000000000028152600401602060405180830381600087803b15801561062a57600080fd5b505af115801561063e573d6000803e3d6000fd5b505050506040513d602081101561065457600080fd5b810190808051906020019092919050505073ffffffffffffffffffffffffffffffffffffffff1614156106d957600360003373ffffffffffffffffffffffffffffffffffffffff1673ffffffffffffffffffffffffffffffffffffffff16815260200190815260200160002060006101000a81549060ff0219169055600191506106de565b600091505b509190505600a165627a7a723058203b06d7fc5257e599e32a19ade91668a019e87460ce3ae04dc0d71c20ef2d2b6a0029",
  "source": "pragma solidity ^0.4.24;\n\nimport \"./Series.sol\";\n\ncontract Register {\n    enum Categories {Patient, Doctor, Research, Drug, Insurance, Government, General}\n    \n    address public entity;\n    string private name;\n    Categories private category;\n    mapping (address => bool) private authorizedSeries;\n    mapping (address => bool) private mySeries;\n    address private subscribedCT;\n\n    constructor(string entityname, Categories mcategory) public {\n        entity = msg.sender;\n        name = entityname;\n        category = mcategory;\n    }\n\n    // make sure it is validated\n    function addMySeries() public payable {\n        mySeries[msg.sender] = true;\n    }\n\n    // make sure it is validated\n    function addAuthorizedSeries() public payable {\n        mySeries[msg.sender] = true;\n    }\n\n    function getName() public view returns (string) {\n        return name;\n    }\n\n    // make sure it is from the owner\n    function authorize(address seriesAddr) public returns (bool) {\n        Series series;\n        series = Series(seriesAddr);\n        if(series.owner() == msg.sender) {\n            authorizedSeries[msg.sender] = true;\n            return true;\n        } else {\n            return false;\n        }\n    }\n\n    function unauthorize(address seriesAddr) public returns (bool) {\n        Series series;\n        series = Series(seriesAddr);\n        if(series.owner() == msg.sender) {\n            delete authorizedSeries[msg.sender];\n            return true;\n        } else {\n            return false;\n        }\n    }\n\n    function queryAuthority(address series) public view returns (bool) {\n        return authorizedSeries[series];\n    }\n}",
  "sourcePath": "D:\\Project\\Blockchain\\rejuvenation\\contracts\\Register.sol",
  "compiler": {
    "name": "solc",
    "version": "0.4.24+commit.e67f0147.Emscripten.clang"
  },
  "schemaVersion": "2.0.1",
  "updatedAt": "2018-09-26T09:16:00.772Z"
}