{
  "contractName": "Series",
  "abi": [
    {
      "constant": true,
      "inputs": [],
      "name": "provider",
      "outputs": [
        {
          "name": "",
          "type": "address"
        }
      ],
      "payable": false,
      "stateMutability": "view",
      "type": "function"
    },
    {
      "constant": true,
      "inputs": [
        {
          "name": "",
          "type": "uint256"
        }
      ],
      "name": "records",
      "outputs": [
        {
          "name": "featureName",
          "type": "string"
        },
        {
          "name": "featureValue",
          "type": "string"
        },
        {
          "name": "datetime",
          "type": "uint256"
        },
        {
          "name": "sql",
          "type": "string"
        }
      ],
      "payable": false,
      "stateMutability": "view",
      "type": "function"
    },
    {
      "constant": true,
      "inputs": [],
      "name": "owner",
      "outputs": [
        {
          "name": "",
          "type": "address"
        }
      ],
      "payable": false,
      "stateMutability": "view",
      "type": "function"
    },
    {
      "inputs": [
        {
          "name": "ownerAddr",
          "type": "address"
        },
        {
          "name": "query",
          "type": "string"
        }
      ],
      "payable": false,
      "stateMutability": "nonpayable",
      "type": "constructor"
    },
    {
      "constant": true,
      "inputs": [],
      "name": "getSql",
      "outputs": [
        {
          "name": "",
          "type": "string"
        }
      ],
      "payable": false,
      "stateMutability": "view",
      "type": "function"
    },
    {
      "constant": false,
      "inputs": [
        {
          "name": "featureName",
          "type": "string"
        },
        {
          "name": "featureValue",
          "type": "string"
        },
        {
          "name": "datetime",
          "type": "uint256"
        },
        {
          "name": "msql",
          "type": "string"
        }
      ],
      "name": "addRecord",
      "outputs": [],
      "payable": false,
      "stateMutability": "nonpayable",
      "type": "function"
    }
  ],
  "bytecode": "0x608060405234801561001057600080fd5b50604051610af3380380610af383398101806040528101908080519060200190929190805182019291905050508173ffffffffffffffffffffffffffffffffffffffff166370d26fc76040518163ffffffff167c0100000000000000000000000000000000000000000000000000000000028152600401600060405180830381600087803b1580156100a157600080fd5b505af11580156100b5573d6000803e3d6000fd5b50505050816000806101000a81548173ffffffffffffffffffffffffffffffffffffffff021916908373ffffffffffffffffffffffffffffffffffffffff16021790555033600160006101000a81548173ffffffffffffffffffffffffffffffffffffffff021916908373ffffffffffffffffffffffffffffffffffffffff1602179055508060029080519060200190610150929190610158565b5050506101fd565b828054600181600116156101000203166002900490600052602060002090601f016020900481019282601f1061019957805160ff19168380011785556101c7565b828001600101855582156101c7579182015b828111156101c65782518255916020019190600101906101ab565b5b5090506101d491906101d8565b5090565b6101fa91905b808211156101f65760008160009055506001016101de565b5090565b90565b6108e78061020c6000396000f30060806040526004361061006d576000357c0100000000000000000000000000000000000000000000000000000000900463ffffffff168063085d48831461007257806334461067146100c9578063801ba4421461024e5780638290c0d2146102de5780638da5cb5b146103dd575b600080fd5b34801561007e57600080fd5b50610087610434565b604051808273ffffffffffffffffffffffffffffffffffffffff1673ffffffffffffffffffffffffffffffffffffffff16815260200191505060405180910390f35b3480156100d557600080fd5b506100f46004803603810190808035906020019092919050505061045a565b60405180806020018060200185815260200180602001848103845288818151815260200191508051906020019080838360005b83811015610142578082015181840152602081019050610127565b50505050905090810190601f16801561016f5780820380516001836020036101000a031916815260200191505b50848103835287818151815260200191508051906020019080838360005b838110156101a857808201518184015260208101905061018d565b50505050905090810190601f1680156101d55780820380516001836020036101000a031916815260200191505b50848103825285818151815260200191508051906020019080838360005b8381101561020e5780820151818401526020810190506101f3565b50505050905090810190601f16801561023b5780820380516001836020036101000a031916815260200191505b5097505050505050505060405180910390f35b34801561025a57600080fd5b50610263610661565b6040518080602001828103825283818151815260200191508051906020019080838360005b838110156102a3578082015181840152602081019050610288565b50505050905090810190601f1680156102d05780820380516001836020036101000a031916815260200191505b509250505060405180910390f35b3480156102ea57600080fd5b506103db600480360381019080803590602001908201803590602001908080601f0160208091040260200160405190810160405280939291908181526020018383808284378201915050505050509192919290803590602001908201803590602001908080601f016020809104026020016040519081016040528093929190818152602001838380828437820191505050505050919291929080359060200190929190803590602001908201803590602001908080601f0160208091040260200160405190810160405280939291908181526020018383808284378201915050505050509192919290505050610703565b005b3480156103e957600080fd5b506103f26107c8565b604051808273ffffffffffffffffffffffffffffffffffffffff1673ffffffffffffffffffffffffffffffffffffffff16815260200191505060405180910390f35b600160009054906101000a900473ffffffffffffffffffffffffffffffffffffffff1681565b60038181548110151561046957fe5b9060005260206000209060040201600091509050806000018054600181600116156101000203166002900480601f0160208091040260200160405190810160405280929190818152602001828054600181600116156101000203166002900480156105155780601f106104ea57610100808354040283529160200191610515565b820191906000526020600020905b8154815290600101906020018083116104f857829003601f168201915b505050505090806001018054600181600116156101000203166002900480601f0160208091040260200160405190810160405280929190818152602001828054600181600116156101000203166002900480156105b35780601f10610588576101008083540402835291602001916105b3565b820191906000526020600020905b81548152906001019060200180831161059657829003601f168201915b505050505090806002015490806003018054600181600116156101000203166002900480601f0160208091040260200160405190810160405280929190818152602001828054600181600116156101000203166002900480156106575780601f1061062c57610100808354040283529160200191610657565b820191906000526020600020905b81548152906001019060200180831161063a57829003601f168201915b5050505050905084565b606060028054600181600116156101000203166002900480601f0160208091040260200160405190810160405280929190818152602001828054600181600116156101000203166002900480156106f95780601f106106ce576101008083540402835291602001916106f9565b820191906000526020600020905b8154815290600101906020018083116106dc57829003601f168201915b5050505050905090565b61070b6107ed565b608060405190810160405280868152602001858152602001848152602001838152509050600381908060018154018082558091505090600182039060005260206000209060040201600090919290919091506000820151816000019080519060200190610779929190610816565b506020820151816001019080519060200190610796929190610816565b506040820151816002015560608201518160030190805190602001906107bd929190610816565b505050505050505050565b6000809054906101000a900473ffffffffffffffffffffffffffffffffffffffff1681565b608060405190810160405280606081526020016060815260200160008152602001606081525090565b828054600181600116156101000203166002900490600052602060002090601f016020900481019282601f1061085757805160ff1916838001178555610885565b82800160010185558215610885579182015b82811115610884578251825591602001919060010190610869565b5b5090506108929190610896565b5090565b6108b891905b808211156108b457600081600090555060010161089c565b5090565b905600a165627a7a7230582038c36519b5e680b15643010335fd8128e0770ee5f490ee787db6ff7e30df3a9c0029",
  "source": "pragma solidity ^0.4.24;\n\nimport './Register.sol';\n\ncontract Series {\n    struct Record {\n        string featureName;\n        string featureValue;\n        uint256 datetime;\n        string sql;\n    }\n    \n    address public owner;\n    address public provider;\n    string private sql;\n    Record[] public records;\n\n    constructor(address ownerAddr, string query) public {\n        Register(ownerAddr).addMySeries();\n        owner = ownerAddr;\n        provider = msg.sender;\n        sql = query;\n    }\n\n    function getSql() public view returns (string) {\n        return sql;\n    }\n\n    function addRecord(string featureName, string featureValue, uint256 datetime, string msql) public {\n        Record memory record = Record(featureName, featureValue, datetime, msql);\n        records.push(record);\n    }\n}",
  "sourcePath": "D:\\Project\\Blockchain\\rejuvenation\\contracts\\Series.sol",
  "compiler": {
    "name": "solc",
    "version": "0.4.24+commit.e67f0147.Emscripten.clang"
  },
  "schemaVersion": "2.0.1",
  "updatedAt": "2018-09-26T03:30:51.172Z"
}