{
  "contractName": "AlgorithmManager",
  "abi": [
    {
      "constant": true,
      "inputs": [
        {
          "name": "",
          "type": "address"
        }
      ],
      "name": "algorithmList",
      "outputs": [
        {
          "name": "",
          "type": "bool"
        }
      ],
      "payable": false,
      "stateMutability": "view",
      "type": "function"
    },
    {
      "inputs": [],
      "payable": false,
      "stateMutability": "nonpayable",
      "type": "constructor"
    },
    {
      "constant": false,
      "inputs": [],
      "name": "addAlgorithm",
      "outputs": [],
      "payable": false,
      "stateMutability": "nonpayable",
      "type": "function"
    }
  ],
  "bytecode": "0x608060405234801561001057600080fd5b50610168806100206000396000f30060806040526004361061004c576000357c0100000000000000000000000000000000000000000000000000000000900463ffffffff168063a9d0027314610051578063d4f8d4cb14610068575b600080fd5b34801561005d57600080fd5b506100666100c3565b005b34801561007457600080fd5b506100a9600480360381019080803573ffffffffffffffffffffffffffffffffffffffff16906020019092919050505061011c565b604051808215151515815260200191505060405180910390f35b60016000803373ffffffffffffffffffffffffffffffffffffffff1673ffffffffffffffffffffffffffffffffffffffff16815260200190815260200160002060006101000a81548160ff021916908315150217905550565b60006020528060005260406000206000915054906101000a900460ff16815600a165627a7a723058208037f614fcf39f0111dbb11e2258d5c84fa12b771efe1c8d600705967eb2341b0029",
  "source": "pragma solidity ^0.4.24;\n\n\ncontract AlgorithmManager {\n    mapping (address => bool) public algorithmList;\n\n    constructor() public {\n    }\n\n    function addAlgorithm() public {\n        algorithmList[msg.sender] = true;\n    }\n    \n}",
  "sourcePath": "D:\\Project\\Blockchain\\rejuvenation\\contracts\\AlgorithmManager.sol",
  "compiler": {
    "name": "solc",
    "version": "0.4.24+commit.e67f0147.Emscripten.clang"
  },
  "schemaVersion": "2.0.1",
  "updatedAt": "2018-09-29T02:17:26.558Z"
}