{
  "contractName": "Authorization",
  "abi": [
    {
      "constant": true,
      "inputs": [],
      "name": "doctor",
      "outputs": [
        {
          "name": "",
          "type": "address"
        }
      ],
      "payable": false,
      "stateMutability": "view",
      "type": "function"
    },
    {
      "constant": true,
      "inputs": [],
      "name": "numAuthorized",
      "outputs": [
        {
          "name": "",
          "type": "uint256"
        }
      ],
      "payable": false,
      "stateMutability": "view",
      "type": "function"
    },
    {
      "inputs": [],
      "payable": false,
      "stateMutability": "nonpayable",
      "type": "constructor"
    },
    {
      "anonymous": false,
      "inputs": [
        {
          "indexed": false,
          "name": "_patient",
          "type": "address"
        },
        {
          "indexed": false,
          "name": "_doctor",
          "type": "address"
        }
      ],
      "name": "Authorize",
      "type": "event"
    },
    {
      "anonymous": false,
      "inputs": [
        {
          "indexed": false,
          "name": "_patient",
          "type": "address"
        },
        {
          "indexed": false,
          "name": "_doctor",
          "type": "address"
        }
      ],
      "name": "Unauthorize",
      "type": "event"
    },
    {
      "constant": false,
      "inputs": [],
      "name": "authorize",
      "outputs": [
        {
          "name": "success",
          "type": "bool"
        }
      ],
      "payable": false,
      "stateMutability": "nonpayable",
      "type": "function"
    },
    {
      "constant": false,
      "inputs": [],
      "name": "unauthorize",
      "outputs": [],
      "payable": false,
      "stateMutability": "nonpayable",
      "type": "function"
    },
    {
      "constant": true,
      "inputs": [
        {
          "name": "patient",
          "type": "address"
        }
      ],
      "name": "queryAuthority",
      "outputs": [
        {
          "name": "authorized",
          "type": "bool"
        }
      ],
      "payable": false,
      "stateMutability": "view",
      "type": "function"
    }
  ],
  "bytecode": "0x608060405234801561001057600080fd5b50336000806101000a81548173ffffffffffffffffffffffffffffffffffffffff021916908373ffffffffffffffffffffffffffffffffffffffff16021790555060006002819055506104e4806100686000396000f30060806040526004361061006d576000357c0100000000000000000000000000000000000000000000000000000000900463ffffffff1680637ea7118c146100725780638ec63714146100c9578063a31f8982146100e0578063ababa4a71461010b578063b9d4f0cd1461013a575b600080fd5b34801561007e57600080fd5b50610087610195565b604051808273ffffffffffffffffffffffffffffffffffffffff1673ffffffffffffffffffffffffffffffffffffffff16815260200191505060405180910390f35b3480156100d557600080fd5b506100de6101ba565b005b3480156100ec57600080fd5b506100f5610332565b6040518082815260200191505060405180910390f35b34801561011757600080fd5b50610120610338565b604051808215151515815260200191505060405180910390f35b34801561014657600080fd5b5061017b600480360381019080803573ffffffffffffffffffffffffffffffffffffffff169060200190929190505050610462565b604051808215151515815260200191505060405180910390f35b6000809054906101000a900473ffffffffffffffffffffffffffffffffffffffff1681565b600160003373ffffffffffffffffffffffffffffffffffffffff1673ffffffffffffffffffffffffffffffffffffffff16815260200190815260200160002060009054906101000a900460ff1615610330576000600160003373ffffffffffffffffffffffffffffffffffffffff1673ffffffffffffffffffffffffffffffffffffffff16815260200190815260200160002060006101000a81548160ff021916908315150217905550600260008154809291906001900391905055507f9e2e03be3c90ca85aaafc8fe4c698c507e5b203e3f02e1d8af7e7ac467316598336000809054906101000a900473ffffffffffffffffffffffffffffffffffffffff16604051808373ffffffffffffffffffffffffffffffffffffffff1673ffffffffffffffffffffffffffffffffffffffff1681526020018273ffffffffffffffffffffffffffffffffffffffff1673ffffffffffffffffffffffffffffffffffffffff1681526020019250505060405180910390a15b565b60025481565b600060018060003373ffffffffffffffffffffffffffffffffffffffff1673ffffffffffffffffffffffffffffffffffffffff16815260200190815260200160002060006101000a81548160ff0219169083151502179055506002600081548092919060010191905055507f30468de898bda644e26bab66e5a2241a3aa6aaf527257f5ca54e0f65204ba14a336000809054906101000a900473ffffffffffffffffffffffffffffffffffffffff16604051808373ffffffffffffffffffffffffffffffffffffffff1673ffffffffffffffffffffffffffffffffffffffff1681526020018273ffffffffffffffffffffffffffffffffffffffff1673ffffffffffffffffffffffffffffffffffffffff1681526020019250505060405180910390a16001905090565b6000600160008373ffffffffffffffffffffffffffffffffffffffff1673ffffffffffffffffffffffffffffffffffffffff16815260200190815260200160002060009054906101000a900460ff1690509190505600a165627a7a72305820b7a975f504250bb7d2a1040afef2455af1523e2767969d7bf82a52993801ffa10029",
  "source": "pragma solidity ^0.4.23;\r\n\r\ncontract Authorization {\r\n\taddress public doctor;\r\n\tmapping (address => bool) private authorizationList;\r\n\tuint public numAuthorized;\r\n\r\n\t// modifier onlyOwner {\r\n\t// \trequire(\r\n\t// \t\tmsg.sender == organizer,\r\n\t// \t\t\"Only organizer can call this function.\"\r\n\t// \t)\r\n\t// }\r\n\r\n\tevent Authorize(address _patient, address _doctor);\r\n\tevent Unauthorize(address _patient, address _doctor);\r\n\r\n\tconstructor() public {\r\n\t\tdoctor = msg.sender;\r\n\t\tnumAuthorized = 0;\r\n\t}\r\n\r\n\tfunction authorize() public returns (bool success) {\r\n\t\tauthorizationList[msg.sender] = true;\r\n\t\tnumAuthorized++;\r\n\t\temit Authorize(msg.sender, doctor);\r\n\t\treturn true;\r\n\t}\r\n\r\n\tfunction unauthorize() public {\r\n\t\tif(authorizationList[msg.sender]) {\r\n\t\t\tauthorizationList[msg.sender] = false;\r\n\t\t\tnumAuthorized--;\r\n\t\t\temit Unauthorize(msg.sender, doctor);\r\n\t\t}\r\n\t}\r\n\r\n\tfunction queryAuthority(address patient) public constant returns (bool authorized) {\r\n\t\treturn authorizationList[patient];\r\n\t}\r\n}",
  "sourcePath": "D:\\Project\\Blockchain\\rejuvenation\\contracts\\Authorization.sol",
  "compiler": {
    "name": "solc",
    "version": "0.4.24+commit.e67f0147.Emscripten.clang"
  },
  "schemaVersion": "2.0.1",
  "updatedAt": "2018-09-29T02:17:26.559Z"
}