{
  "contractName": "ClinicalTrialManager",
  "abi": [
    {
      "constant": false,
      "inputs": [],
      "name": "addCategory",
      "outputs": [],
      "payable": false,
      "stateMutability": "nonpayable",
      "type": "function"
    }
  ],
  "bytecode": "0x6080604052348015600f57600080fd5b5060dd8061001e6000396000f300608060405260043610603f576000357c0100000000000000000000000000000000000000000000000000000000900463ffffffff168063577f9ec1146044575b600080fd5b348015604f57600080fd5b5060566058565b005b60016000803373ffffffffffffffffffffffffffffffffffffffff1673ffffffffffffffffffffffffffffffffffffffff16815260200190815260200160002060006101000a81548160ff0219169083151502179055505600a165627a7a7230582090c6e34e4c5c900264af826d85360604f81bf536731e9e417e7c110bb662a7350029",
  "source": "pragma solidity ^0.4.23;\r\n\r\ncontract ClinicalTrialManager {\r\n    mapping (address => bool) categories;\r\n    \r\n    function addCategory() public {\r\n        categories[msg.sender] = true;\r\n    }\r\n}",
  "sourcePath": "D:\\Project\\Blockchain\\rejuvenation\\contracts\\ClinicalTrialManager.sol",
  "compiler": {
    "name": "solc",
    "version": "0.4.24+commit.e67f0147.Emscripten.clang"
  },
  "schemaVersion": "2.0.1",
  "updatedAt": "2018-09-26T03:30:51.171Z"
}