{
  "contractName": "ClinicalTrial",
  "abi": [
    {
      "constant": true,
      "inputs": [],
      "name": "contact",
      "outputs": [
        {
          "name": "",
          "type": "string"
        }
      ],
      "payable": false,
      "stateMutability": "view",
      "type": "function"
    },
    {
      "constant": true,
      "inputs": [],
      "name": "info",
      "outputs": [
        {
          "name": "",
          "type": "string"
        }
      ],
      "payable": false,
      "stateMutability": "view",
      "type": "function"
    },
    {
      "constant": true,
      "inputs": [],
      "name": "addr",
      "outputs": [
        {
          "name": "",
          "type": "string"
        }
      ],
      "payable": false,
      "stateMutability": "view",
      "type": "function"
    },
    {
      "constant": true,
      "inputs": [],
      "name": "publisher",
      "outputs": [
        {
          "name": "",
          "type": "address"
        }
      ],
      "payable": false,
      "stateMutability": "view",
      "type": "function"
    },
    {
      "inputs": [],
      "payable": false,
      "stateMutability": "nonpayable",
      "type": "constructor"
    },
    {
      "constant": false,
      "inputs": [
        {
          "name": "minfo",
          "type": "string"
        },
        {
          "name": "maddr",
          "type": "string"
        },
        {
          "name": "mcontact",
          "type": "string"
        }
      ],
      "name": "addCategory",
      "outputs": [],
      "payable": false,
      "stateMutability": "nonpayable",
      "type": "function"
    }
  ],
  "bytecode": "0x608060405234801561001057600080fd5b5033600360006101000a81548173ffffffffffffffffffffffffffffffffffffffff021916908373ffffffffffffffffffffffffffffffffffffffff160217905550610689806100616000396000f30060806040526004361061006d576000357c0100000000000000000000000000000000000000000000000000000000900463ffffffff168063219ea6201461007257806333a8c45a14610167578063370158ea146101f7578063767800de146102875780638c72c54e14610317575b600080fd5b34801561007e57600080fd5b50610165600480360381019080803590602001908201803590602001908080601f0160208091040260200160405190810160405280939291908181526020018383808284378201915050505050509192919290803590602001908201803590602001908080601f0160208091040260200160405190810160405280939291908181526020018383808284378201915050505050509192919290803590602001908201803590602001908080601f016020809104026020016040519081016040528093929190818152602001838380828437820191505050505050919291929050505061036e565b005b34801561017357600080fd5b5061017c6103b8565b6040518080602001828103825283818151815260200191508051906020019080838360005b838110156101bc5780820151818401526020810190506101a1565b50505050905090810190601f1680156101e95780820380516001836020036101000a031916815260200191505b509250505060405180910390f35b34801561020357600080fd5b5061020c610456565b6040518080602001828103825283818151815260200191508051906020019080838360005b8381101561024c578082015181840152602081019050610231565b50505050905090810190601f1680156102795780820380516001836020036101000a031916815260200191505b509250505060405180910390f35b34801561029357600080fd5b5061029c6104f4565b6040518080602001828103825283818151815260200191508051906020019080838360005b838110156102dc5780820151818401526020810190506102c1565b50505050905090810190601f1680156103095780820380516001836020036101000a031916815260200191505b509250505060405180910390f35b34801561032357600080fd5b5061032c610592565b604051808273ffffffffffffffffffffffffffffffffffffffff1673ffffffffffffffffffffffffffffffffffffffff16815260200191505060405180910390f35b82600090805190602001906103849291906105b8565b50816001908051906020019061039b9291906105b8565b5080600290805190602001906103b29291906105b8565b50505050565b60028054600181600116156101000203166002900480601f01602080910402602001604051908101604052809291908181526020018280546001816001161561010002031660029004801561044e5780601f106104235761010080835404028352916020019161044e565b820191906000526020600020905b81548152906001019060200180831161043157829003601f168201915b505050505081565b60008054600181600116156101000203166002900480601f0160208091040260200160405190810160405280929190818152602001828054600181600116156101000203166002900480156104ec5780601f106104c1576101008083540402835291602001916104ec565b820191906000526020600020905b8154815290600101906020018083116104cf57829003601f168201915b505050505081565b60018054600181600116156101000203166002900480601f01602080910402602001604051908101604052809291908181526020018280546001816001161561010002031660029004801561058a5780601f1061055f5761010080835404028352916020019161058a565b820191906000526020600020905b81548152906001019060200180831161056d57829003601f168201915b505050505081565b600360009054906101000a900473ffffffffffffffffffffffffffffffffffffffff1681565b828054600181600116156101000203166002900490600052602060002090601f016020900481019282601f106105f957805160ff1916838001178555610627565b82800160010185558215610627579182015b8281111561062657825182559160200191906001019061060b565b5b5090506106349190610638565b5090565b61065a91905b8082111561065657600081600090555060010161063e565b5090565b905600a165627a7a72305820e52f4e5a4610098e5ab4429e749e8c98b05236e4baa68624047c3d1c2a1f95b80029",
  "source": "pragma solidity ^0.4.23;\r\n\r\ncontract ClinicalTrial {\r\n    string public info;\r\n    string public addr;\r\n    string public contact;\r\n    address public publisher;\r\n    \r\n    constructor() public {\r\n        publisher = msg.sender;\r\n    }\r\n    \r\n    function addCategory(string minfo, string maddr, string mcontact) public {\r\n        info = minfo;\r\n        addr = maddr;\r\n        contact = mcontact;\r\n    }\r\n}",
  "sourcePath": "D:\\Project\\Blockchain\\rejuvenation\\contracts\\ClinicalTrial.sol",
  "compiler": {
    "name": "solc",
    "version": "0.4.24+commit.e67f0147.Emscripten.clang"
  },
  "schemaVersion": "2.0.1",
  "updatedAt": "2018-09-29T02:17:26.559Z"
}