{
  "contractName": "Record",
  "abi": [
    {
      "constant": true,
      "inputs": [],
      "name": "provider",
      "outputs": [
        {
          "name": "",
          "type": "address"
        }
      ],
      "payable": false,
      "stateMutability": "view",
      "type": "function"
    },
    {
      "constant": true,
      "inputs": [],
      "name": "owner",
      "outputs": [
        {
          "name": "",
          "type": "address"
        }
      ],
      "payable": false,
      "stateMutability": "view",
      "type": "function"
    },
    {
      "inputs": [
        {
          "name": "ownerAddr",
          "type": "address"
        },
        {
          "name": "providerAddr",
          "type": "address"
        },
        {
          "name": "query",
          "type": "string"
        }
      ],
      "payable": false,
      "stateMutability": "nonpayable",
      "type": "constructor"
    }
  ],
  "bytecode": "0x608060405234801561001057600080fd5b506040516104fd3803806104fd8339810180604052810190808051906020019092919080519060200190929190805182019291905050508273ffffffffffffffffffffffffffffffffffffffff166317d7de7c6040518163ffffffff167c0100000000000000000000000000000000000000000000000000000000028152600401600060405180830381600087803b1580156100ab57600080fd5b505af11580156100bf573d6000803e3d6000fd5b505050506040513d6000823e3d601f19601f8201168201806040525060208110156100e957600080fd5b81019080805164010000000081111561010157600080fd5b8281019050602081018481111561011757600080fd5b815185600182028301116401000000008211171561013457600080fd5b5050929190505050508173ffffffffffffffffffffffffffffffffffffffff166317d7de7c6040518163ffffffff167c0100000000000000000000000000000000000000000000000000000000028152600401600060405180830381600087803b1580156101a157600080fd5b505af11580156101b5573d6000803e3d6000fd5b505050506040513d6000823e3d601f19601f8201168201806040525060208110156101df57600080fd5b8101908080516401000000008111156101f757600080fd5b8281019050602081018481111561020d57600080fd5b815185600182028301116401000000008211171561022a57600080fd5b505092919050505050826000806101000a81548173ffffffffffffffffffffffffffffffffffffffff021916908373ffffffffffffffffffffffffffffffffffffffff16021790555081600160006101000a81548173ffffffffffffffffffffffffffffffffffffffff021916908373ffffffffffffffffffffffffffffffffffffffff16021790555080600290805190602001906102ca9291906102d3565b50505050610378565b828054600181600116156101000203166002900490600052602060002090601f016020900481019282601f1061031457805160ff1916838001178555610342565b82800160010185558215610342579182015b82811115610341578251825591602001919060010190610326565b5b50905061034f9190610353565b5090565b61037591905b80821115610371576000816000905550600101610359565b5090565b90565b610176806103876000396000f30060806040526004361061004c576000357c0100000000000000000000000000000000000000000000000000000000900463ffffffff168063085d4883146100515780638da5cb5b146100a8575b600080fd5b34801561005d57600080fd5b506100666100ff565b604051808273ffffffffffffffffffffffffffffffffffffffff1673ffffffffffffffffffffffffffffffffffffffff16815260200191505060405180910390f35b3480156100b457600080fd5b506100bd610125565b604051808273ffffffffffffffffffffffffffffffffffffffff1673ffffffffffffffffffffffffffffffffffffffff16815260200191505060405180910390f35b600160009054906101000a900473ffffffffffffffffffffffffffffffffffffffff1681565b6000809054906101000a900473ffffffffffffffffffffffffffffffffffffffff16815600a165627a7a7230582056e7bac921813a618f247466eb9caca1c0c9f5c7cda0a36b15fc61cdc0cd274f0029",
  "source": "pragma solidity ^0.4.24;\n\nimport \"./Register.sol\";\n\ncontract Record {\n    address public owner;\n    address public provider;\n    string private sql;\n\n    constructor(address ownerAddr, address providerAddr, string query) public {\n        Register(ownerAddr).getName();\n        Register(providerAddr).getName();\n\n        owner = ownerAddr;\n        provider = providerAddr;\n        sql = query;\n    }\n    \n}",
  "sourcePath": "D:\\Project\\Blockchain\\rejuvenation\\contracts\\Record.sol",
  "compiler": {
    "name": "solc",
    "version": "0.4.24+commit.e67f0147.Emscripten.clang"
  },
  "schemaVersion": "2.0.1",
  "updatedAt": "2018-09-03T08:02:50.893Z"
}