{
  "contractName": "Series",
  "abi": [
    {
      "constant": true,
      "inputs": [],
      "name": "name",
      "outputs": [
        {
          "name": "",
          "type": "string"
        }
      ],
      "payable": false,
      "stateMutability": "view",
      "type": "function"
    },
    {
      "constant": true,
      "inputs": [],
      "name": "provider",
      "outputs": [
        {
          "name": "",
          "type": "address"
        }
      ],
      "payable": false,
      "stateMutability": "view",
      "type": "function"
    },
    {
      "constant": true,
      "inputs": [
        {
          "name": "",
          "type": "uint256"
        }
      ],
      "name": "records",
      "outputs": [
        {
          "name": "featureName",
          "type": "string"
        },
        {
          "name": "featureValue",
          "type": "string"
        },
        {
          "name": "datetime",
          "type": "uint256"
        },
        {
          "name": "sql",
          "type": "string"
        }
      ],
      "payable": false,
      "stateMutability": "view",
      "type": "function"
    },
    {
      "constant": true,
      "inputs": [],
      "name": "owner",
      "outputs": [
        {
          "name": "",
          "type": "address"
        }
      ],
      "payable": false,
      "stateMutability": "view",
      "type": "function"
    },
    {
      "inputs": [
        {
          "name": "ownerAddr",
          "type": "address"
        },
        {
          "name": "mname",
          "type": "string"
        },
        {
          "name": "mprovider",
          "type": "address"
        },
        {
          "name": "query",
          "type": "string"
        }
      ],
      "payable": false,
      "stateMutability": "nonpayable",
      "type": "constructor"
    },
    {
      "constant": true,
      "inputs": [],
      "name": "getSql",
      "outputs": [
        {
          "name": "",
          "type": "string"
        }
      ],
      "payable": false,
      "stateMutability": "view",
      "type": "function"
    },
    {
      "constant": false,
      "inputs": [
        {
          "name": "featureName",
          "type": "string"
        },
        {
          "name": "featureValue",
          "type": "string"
        },
        {
          "name": "datetime",
          "type": "uint256"
        },
        {
          "name": "msql",
          "type": "string"
        }
      ],
      "name": "addRecord",
      "outputs": [],
      "payable": false,
      "stateMutability": "nonpayable",
      "type": "function"
    }
  ],
  "bytecode": "0x608060405234801561001057600080fd5b50604051610c5b380380610c5b833981018060405281019080805190602001909291908051820192919060200180519060200190929190805182019291905050508373ffffffffffffffffffffffffffffffffffffffff166370d26fc76040518163ffffffff167c0100000000000000000000000000000000000000000000000000000000028152600401600060405180830381600087803b1580156100b557600080fd5b505af11580156100c9573d6000803e3d6000fd5b5050505082600090805190602001906100e3929190610186565b5083600160006101000a81548173ffffffffffffffffffffffffffffffffffffffff021916908373ffffffffffffffffffffffffffffffffffffffff16021790555081600260006101000a81548173ffffffffffffffffffffffffffffffffffffffff021916908373ffffffffffffffffffffffffffffffffffffffff160217905550806003908051906020019061017c929190610186565b505050505061022b565b828054600181600116156101000203166002900490600052602060002090601f016020900481019282601f106101c757805160ff19168380011785556101f5565b828001600101855582156101f5579182015b828111156101f45782518255916020019190600101906101d9565b5b5090506102029190610206565b5090565b61022891905b8082111561022457600081600090555060010161020c565b5090565b90565b610a218061023a6000396000f300608060405260043610610078576000357c0100000000000000000000000000000000000000000000000000000000900463ffffffff16806306fdde031461007d578063085d48831461010d5780633446106714610164578063801ba442146102e95780638290c0d2146103795780638da5cb5b14610478575b600080fd5b34801561008957600080fd5b506100926104cf565b6040518080602001828103825283818151815260200191508051906020019080838360005b838110156100d25780820151818401526020810190506100b7565b50505050905090810190601f1680156100ff5780820380516001836020036101000a031916815260200191505b509250505060405180910390f35b34801561011957600080fd5b5061012261056d565b604051808273ffffffffffffffffffffffffffffffffffffffff1673ffffffffffffffffffffffffffffffffffffffff16815260200191505060405180910390f35b34801561017057600080fd5b5061018f60048036038101908080359060200190929190505050610593565b60405180806020018060200185815260200180602001848103845288818151815260200191508051906020019080838360005b838110156101dd5780820151818401526020810190506101c2565b50505050905090810190601f16801561020a5780820380516001836020036101000a031916815260200191505b50848103835287818151815260200191508051906020019080838360005b83811015610243578082015181840152602081019050610228565b50505050905090810190601f1680156102705780820380516001836020036101000a031916815260200191505b50848103825285818151815260200191508051906020019080838360005b838110156102a957808201518184015260208101905061028e565b50505050905090810190601f1680156102d65780820380516001836020036101000a031916815260200191505b5097505050505050505060405180910390f35b3480156102f557600080fd5b506102fe61079a565b6040518080602001828103825283818151815260200191508051906020019080838360005b8381101561033e578082015181840152602081019050610323565b50505050905090810190601f16801561036b5780820380516001836020036101000a031916815260200191505b509250505060405180910390f35b34801561038557600080fd5b50610476600480360381019080803590602001908201803590602001908080601f0160208091040260200160405190810160405280939291908181526020018383808284378201915050505050509192919290803590602001908201803590602001908080601f016020809104026020016040519081016040528093929190818152602001838380828437820191505050505050919291929080359060200190929190803590602001908201803590602001908080601f016020809104026020016040519081016040528093929190818152602001838380828437820191505050505050919291929050505061083c565b005b34801561048457600080fd5b5061048d610901565b604051808273ffffffffffffffffffffffffffffffffffffffff1673ffffffffffffffffffffffffffffffffffffffff16815260200191505060405180910390f35b60008054600181600116156101000203166002900480601f0160208091040260200160405190810160405280929190818152602001828054600181600116156101000203166002900480156105655780601f1061053a57610100808354040283529160200191610565565b820191906000526020600020905b81548152906001019060200180831161054857829003601f168201915b505050505081565b600260009054906101000a900473ffffffffffffffffffffffffffffffffffffffff1681565b6004818154811015156105a257fe5b9060005260206000209060040201600091509050806000018054600181600116156101000203166002900480601f01602080910402602001604051908101604052809291908181526020018280546001816001161561010002031660029004801561064e5780601f106106235761010080835404028352916020019161064e565b820191906000526020600020905b81548152906001019060200180831161063157829003601f168201915b505050505090806001018054600181600116156101000203166002900480601f0160208091040260200160405190810160405280929190818152602001828054600181600116156101000203166002900480156106ec5780601f106106c1576101008083540402835291602001916106ec565b820191906000526020600020905b8154815290600101906020018083116106cf57829003601f168201915b505050505090806002015490806003018054600181600116156101000203166002900480601f0160208091040260200160405190810160405280929190818152602001828054600181600116156101000203166002900480156107905780601f1061076557610100808354040283529160200191610790565b820191906000526020600020905b81548152906001019060200180831161077357829003601f168201915b5050505050905084565b606060038054600181600116156101000203166002900480601f0160208091040260200160405190810160405280929190818152602001828054600181600116156101000203166002900480156108325780601f1061080757610100808354040283529160200191610832565b820191906000526020600020905b81548152906001019060200180831161081557829003601f168201915b5050505050905090565b610844610927565b6080604051908101604052808681526020018581526020018481526020018381525090506004819080600181540180825580915050906001820390600052602060002090600402016000909192909190915060008201518160000190805190602001906108b2929190610950565b5060208201518160010190805190602001906108cf929190610950565b506040820151816002015560608201518160030190805190602001906108f6929190610950565b505050505050505050565b600160009054906101000a900473ffffffffffffffffffffffffffffffffffffffff1681565b608060405190810160405280606081526020016060815260200160008152602001606081525090565b828054600181600116156101000203166002900490600052602060002090601f016020900481019282601f1061099157805160ff19168380011785556109bf565b828001600101855582156109bf579182015b828111156109be5782518255916020019190600101906109a3565b5b5090506109cc91906109d0565b5090565b6109f291905b808211156109ee5760008160009055506001016109d6565b5090565b905600a165627a7a723058207b87427efce56eb3a5359c22738f57701a79342438c1f6f1262855c83d245a8e0029",
  "source": "pragma solidity ^0.4.24;\n\nimport './Register.sol';\n\ncontract Series {\n    struct Record {\n        string featureName;\n        string featureValue;\n        uint256 datetime;\n        string sql;\n    }\n    \n    string public name;\n    address public owner;\n    address public provider;\n    string private sql;\n    Record[] public records;\n\n    constructor(address ownerAddr, string mname, address mprovider, string query) public {\n        Register(ownerAddr).addMySeries();\n        name = mname;\n        owner = ownerAddr;\n        provider = mprovider;\n        sql = query;\n    }\n\n    function getSql() public view returns (string) {\n        return sql;\n    }\n\n    function addRecord(string featureName, string featureValue, uint256 datetime, string msql) public {\n        Record memory record = Record(featureName, featureValue, datetime, msql);\n        records.push(record);\n    }\n}",
  "sourcePath": "D:\\Project\\Blockchain\\rejuvenation\\contracts\\Series.sol",
  "compiler": {
    "name": "solc",
    "version": "0.4.24+commit.e67f0147.Emscripten.clang"
  },
  "schemaVersion": "2.0.1",
  "updatedAt": "2018-09-27T09:17:20.526Z"
}