{
  "contractName": "Register",
  "abi": [
    {
      "constant": true,
      "inputs": [],
      "name": "entity",
      "outputs": [
        {
          "name": "",
          "type": "address"
        }
      ],
      "payable": false,
      "stateMutability": "view",
      "type": "function"
    },
    {
      "inputs": [
        {
          "name": "entityname",
          "type": "string"
        },
        {
          "name": "mcategory",
          "type": "uint8"
        }
      ],
      "payable": false,
      "stateMutability": "nonpayable",
      "type": "constructor"
    },
    {
      "anonymous": false,
      "inputs": [
        {
          "indexed": false,
          "name": "sender",
          "type": "address"
        }
      ],
      "name": "AddRecord",
      "type": "event"
    },
    {
      "anonymous": false,
      "inputs": [
        {
          "indexed": false,
          "name": "_patient",
          "type": "address"
        },
        {
          "indexed": false,
          "name": "_doctor",
          "type": "address"
        },
        {
          "indexed": false,
          "name": "level",
          "type": "uint8"
        }
      ],
      "name": "AuthorizeRecord",
      "type": "event"
    },
    {
      "constant": false,
      "inputs": [],
      "name": "addRecord",
      "outputs": [],
      "payable": true,
      "stateMutability": "payable",
      "type": "function"
    },
    {
      "constant": true,
      "inputs": [],
      "name": "getName",
      "outputs": [
        {
          "name": "",
          "type": "string"
        }
      ],
      "payable": false,
      "stateMutability": "view",
      "type": "function"
    },
    {
      "constant": false,
      "inputs": [
        {
          "name": "level",
          "type": "uint8"
        },
        {
          "name": "recordAddr",
          "type": "address"
        }
      ],
      "name": "authorize",
      "outputs": [
        {
          "name": "success",
          "type": "bool"
        }
      ],
      "payable": false,
      "stateMutability": "nonpayable",
      "type": "function"
    },
    {
      "constant": true,
      "inputs": [
        {
          "name": "record",
          "type": "address"
        }
      ],
      "name": "queryAuthority",
      "outputs": [
        {
          "name": "authorizeType",
          "type": "uint8"
        }
      ],
      "payable": false,
      "stateMutability": "view",
      "type": "function"
    }
  ],
  "bytecode": "0x608060405234801561001057600080fd5b506040516107af3803806107af8339810180604052810190808051820192919060200180519060200190929190505050336000806101000a81548173ffffffffffffffffffffffffffffffffffffffff021916908373ffffffffffffffffffffffffffffffffffffffff16021790555081600190805190602001906100969291906100c1565b5080600260006101000a81548160ff021916908360038111156100b557fe5b02179055505050610166565b828054600181600116156101000203166002900490600052602060002090601f016020900481019282601f1061010257805160ff1916838001178555610130565b82800160010185558215610130579182015b8281111561012f578251825591602001919060010190610114565b5b50905061013d9190610141565b5090565b61016391905b8082111561015f576000816000905550600101610147565b5090565b90565b61063a806101756000396000f30060806040526004361061006d576000357c0100000000000000000000000000000000000000000000000000000000900463ffffffff16806317d7de7c146100725780636cdbbc6614610102578063b9d4f0cd14610159578063cc4a738b146101b6578063dbed89a21461021e575b600080fd5b34801561007e57600080fd5b50610087610228565b6040518080602001828103825283818151815260200191508051906020019080838360005b838110156100c75780820151818401526020810190506100ac565b50505050905090810190601f1680156100f45780820380516001836020036101000a031916815260200191505b509250505060405180910390f35b34801561010e57600080fd5b506101176102ca565b604051808273ffffffffffffffffffffffffffffffffffffffff1673ffffffffffffffffffffffffffffffffffffffff16815260200191505060405180910390f35b34801561016557600080fd5b5061019a600480360381019080803573ffffffffffffffffffffffffffffffffffffffff1690602001909291905050506102ef565b604051808260ff1660ff16815260200191505060405180910390f35b3480156101c257600080fd5b50610204600480360381019080803560ff169060200190929190803573ffffffffffffffffffffffffffffffffffffffff169060200190929190505050610345565b604051808215151515815260200191505060405180910390f35b610226610550565b005b606060018054600181600116156101000203166002900480601f0160208091040260200160405190810160405280929190818152602001828054600181600116156101000203166002900480156102c05780601f10610295576101008083540402835291602001916102c0565b820191906000526020600020905b8154815290600101906020018083116102a357829003601f168201915b5050505050905090565b6000809054906101000a900473ffffffffffffffffffffffffffffffffffffffff1681565b6000600360008373ffffffffffffffffffffffffffffffffffffffff1673ffffffffffffffffffffffffffffffffffffffff16815260200190815260200160002060009054906101000a900460ff169050919050565b6000808290503373ffffffffffffffffffffffffffffffffffffffff168173ffffffffffffffffffffffffffffffffffffffff16638da5cb5b6040518163ffffffff167c0100000000000000000000000000000000000000000000000000000000028152600401602060405180830381600087803b1580156103c657600080fd5b505af11580156103da573d6000803e3d6000fd5b505050506040513d60208110156103f057600080fd5b810190808051906020019092919050505073ffffffffffffffffffffffffffffffffffffffff1614156105445783600360003373ffffffffffffffffffffffffffffffffffffffff1673ffffffffffffffffffffffffffffffffffffffff16815260200190815260200160002060006101000a81548160ff021916908360ff1602179055507fa8d6a26bc91787c3ae5f6981f492b6ae815c13dada9df78672918316c7d08967336000809054906101000a900473ffffffffffffffffffffffffffffffffffffffff1686604051808473ffffffffffffffffffffffffffffffffffffffff1673ffffffffffffffffffffffffffffffffffffffff1681526020018373ffffffffffffffffffffffffffffffffffffffff1673ffffffffffffffffffffffffffffffffffffffff1681526020018260ff1660ff168152602001935050505060405180910390a160019150610549565b600091505b5092915050565b7fb9649b6ffe3985e42f6f8046c80ed005d5290b79fd74178607d1146fa098140233604051808273ffffffffffffffffffffffffffffffffffffffff1673ffffffffffffffffffffffffffffffffffffffff16815260200191505060405180910390a16002600360003373ffffffffffffffffffffffffffffffffffffffff1673ffffffffffffffffffffffffffffffffffffffff16815260200190815260200160002060006101000a81548160ff021916908360ff1602179055505600a165627a7a72305820950dcefb94ec938ef694a7d5da95e7052bd5712c9e99ec84a5d5fcc509748f590029",
  "source": "pragma solidity ^0.4.24;\n\nimport \"./Record.sol\";\n\ncontract Register {\n    enum Categories {Doctor, Patient, Research, General}\n    address public entity;\n    string private name;\n    Categories private category;\n    \n    // define the confidence level\n    mapping (address => uint8) private recordList;\n\n    event AddRecord(address sender);\n    event AuthorizeRecord(address _patient, address _doctor, uint8 level);\n\n    constructor(string entityname, Categories mcategory) public {\n        entity = msg.sender;\n        name = entityname;\n        category = mcategory;\n    }\n\n    // make sure it is doctor\n    function addRecord() public payable {\n        emit AddRecord(msg.sender);\n        recordList[msg.sender] = 2;\n    }\n\n    function getName() public view returns (string) {\n        return name;\n    }\n\n    // make sure it is from the owner\n    function authorize(uint8 level, address recordAddr) public returns (bool success) {\n        Record record;\n        record = Record(recordAddr);\n        if(record.owner() == msg.sender) {\n            recordList[msg.sender] = level;\n            emit AuthorizeRecord(msg.sender, entity, level);\n            return true;\n        } else {\n            return false;\n        }\n    }\n\n    function queryAuthority(address record) public view returns (uint8 authorizeType) {\n        return recordList[record];\n    }\n}",
  "sourcePath": "D:\\Project\\Blockchain\\rejuvenation\\contracts\\Register.sol",
  "compiler": {
    "name": "solc",
    "version": "0.4.24+commit.e67f0147.Emscripten.clang"
  },
  "schemaVersion": "2.0.1",
  "updatedAt": "2018-09-03T08:02:50.894Z"
}